:02000000762E5A
:10000600103083120313FD00FD0B072800000800C3
:10001600083083120313FC002330FD00FD0B11286A
:06002600FC0B112808008C
:04002C0000000800C8
:0E003000F201F101F001F801F30100300800C7
:10003E007B15FB1F29280130F300F201F101F001BD
:08004E00FA0DF20CFF3008006E
:1000560083160313AA1B32288312871234288312AD
:10006600871683162A1B3A28831207123C28831206
:1000760007168316AA1A4228831287114428831268
:10008600871583162A1A4A28831207114C288312C9
:1000960007154018502807145128071087141620F2
:1000A60087108316AA195A28831287125C2883128E
:1000B600871683162A196228831207126428831268
:1000C60007168316AA186A28831287116C288312CA
:1000D600871583162A18722883120711742883122B
:1000E6000715401878280714792807108714162052
:0E00F6008710401C80280B2081280320080062
:10010400FB14FB1F8C28FF30F300F200F100F00019
:08011400FA0DF20CFF300800A7
:10011C0083120313F801F9011030FC00710DF80D76
:10012C00F90D7408F8027508031C750FF902031811
:10013C00A6287408F80775080318750FF90703103B
:0A014C00F00DF10DFC0B94280800E3
:08015600FA1FF213003008004B
:10015E00FF3083120313C300FF30C400FF30C5000D
:10016E00FF30C3309F05C0309F003509F000700886
:0C017E0083169F059F1783121F140800B2
:10018A00A0017208031DDA287108F2007008F10054
:10019A00F001A0157208031DDA287108F200F101B6
:1001AA00A011201672080319E8282008F302031D7B
:1001BA00031CEC280310F21BF028F00DF10DF20DD0
:1001CA00F30BE028EC280130FC001820F328023059
:0E01DA00FC001F20F3280430FC00AB200800BE
:1001E80083120313FD01F801700803190034740623
:1001F800FA00FA1BFD09FB01F41F0429F409F40AAB
:10020800F01F0829F009F00A70087404FA00FA1BB4
:100218002C297408F802F00D700DF80D7408F80711
:10022800F00D0630FC00700DF80D74087018F80217
:10023800701CF807F00DFC0B1729701CF8077B18C9
:100248003A29FD1F0034F009F00AF809F80A0034C9
:10025800F41F3729F01B34297008F800F00125290C
:10026800F001F00A0034F009FB0A0D29F80A7408B5
:100278007802031D2529F801F00AF01F2529FF340B
:0202880008006C
:10028A0083120313401083162508AA002B2040145A
:02029A0008005A
:10029C008316031387100710071187110712871293
:1002AC0083128710071087120712871107110B2072
:1002BC000B200B20871507158714162087100B2091
:1002CC008714162087100B208714162087100B20FC
:1002DC0007118714162087100B20871416208710FF
:1002EC00871187168714162087100B208712071585
:1002FC0087141620871007118714162087100B20DF
:10030C0087141620871007158714162087100B20CA
:10031C0007118714162087108716071687150715DF
:0C032C008714162087100B2040140800D6
:0E033800073083120313FD00FD0BA0290800FF
:10034600831603132508F2007208F100F20A260844
:10035600F000A60A700884000008F0007108840006
:10036600700880007108840000080319BB29A729BA
:060376002508F00008005C
:10037C00831603139818C4290000BE29250883127C
:04038C0099000800CC
:1003900083120313FB017308031D770803191F2A37
:1003A00072087606FA007708F3077E30031CDC2912
:1003B000F3020318222ADF29F302031C252A7208FC
:1003C000F8007108FC007008FD00F817F61703101C
:1003D000F201F101F0011830A0007D1CF929740828
:1003E000F00775080318750FF10776080318760FE4
:1003F000F207F20CF10CF00CF80CFC0CFD0C0310E5
:10040000A00BED29F21B092AF80DF00DF10DF20DEC
:10041000F3037B1B701C1B2AF81F1B2AF00A03190D
:10042000F10A0319F20A031D1B2AF20CF10CF00C5D
:10043000F30A0319222AFA1FF2130030272A013087
:100440001820272A02308220272A04301F2000008B
:020450000800A2
:1004520083160313A801053028020318372A280837
:100462002707840020308000A80A2C2A28082707A2
:1004720084008001A80328082707A9000A30F40095
:10048200F5012508F0002608F1008E207808F0001A
:100492007908F1003030F0078316290884007008CB
:1004A20080000A30F400F5012508F0002608F1006A
:1004B2008E2070088316A5007108A6000030710610
:1004C200031D652A00307006031D682A6A2AA803E4
:0404D2003C2A0800B8
:0E04D6008312031342088A00410882000800C6
:1004E40083120313FA017308031D7A147708031D9A
:1004F400FA147A080319BE2A033A0319892A7A18C6
:10050400862AF61FBC2ABA2AF21FBA2ABC2A720803
:100514008039FA00F21376088039F6137A06031943
:10052400972A7A080319BA2ABC2A7708730203198E
:100534009E2A031CB22AB62A760872020319A52A37
:10054400031CB22AB62A750871020319AC2A031CCB
:10055400B22AB62A740870020319BE2A0318B62AEE
:10056400FA080319BC2ABA2AFA080319BA2ABC2AB7
:1005740003140800031008000314031508000800FE
:10058400D42A803083120313E800E72AC030E8003D
:10059400E72A9430E800E72AD430E800E72A8030DC
:1005A400E800E72A831203136808013A0319C32AEF
:1005B4006808023A0319C82A6808033A0319CB2ABF
:1005C4006808043A0319CE2AD12A6903F00068089E
:1005D400F0077008E80070088316AA002B2040106A
:1005E400EB016B086A07840000080319022B6B08EF
:1005F4006A07840000088316A5004521EB0AF32A44
:040604004014080096
:1006080083120313EA01680884000008E9006908F6
:10061800003A03191A2B69088316A500BE21EA0AB5
:0E0628006A08680784000008E9000B2B080030
:10063600C330831203139F05C0309F006808F00083
:10064600F00D7010F00D701070089F043509F00061
:10065600700883169F059F1783121F149C219F14F1
:100666009F1C372B0000332B1F101E08F100F001D2
:0C06760083161E08F0040030F104080098
:1006820083120313EF018316A401831268088316F1
:10069200A000831269088316A10083126A088316D8
:1006A200A20083126B088316A3002308FF3A031DDE
:1006B200642B2208FF3A031D642B2108FF3A031D15
:1006C200642B2008FF3A031D702B83126C088316DB
:1006D200A5003630A600A3210330F0006E2D0130B4
:1006E2008312ED008316A21F822B80302206F000B7
:1006F2007008A2008312ED0A6C0884002D3080007D
:10070200EC0A0030F00083162306031D922B7008BA
:100712002206031D922B70082106031D922B20082E
:10072200003A031D9D2B83126C088316A5003E30F0
:10073200A600A321F0016E2D2308FF3A031DAB2B67
:100742002208003A031DAB2B2108003A031DAB2BF4
:100752002008003A031DB82B83126C088316A500EB
:100762003A30A600A32183126D08F0006E2D0030EE
:10077200F4000030F5000030F6007F30F7008316F9
:100782002008F0002108F1002208F2002308F300FB
:100792007222013003180030F00070080319EE2BAA
:1007A20083162008F0002108F1002208F200230835
:1007B200F3000030F4000030F5002030F600823003
:1007C200F700C82170088316A0007108A100720802
:1007D200A2007308A300A403B82B83160030F40010
:1007E2000030F5002030F6008230F7002008F000DB
:1007F2002108F1002208F2002308F30072220130DE
:10080200031C0030F00070080319242C8316200802
:10081200F0002108F1002208F2002308F300CD3095
:10082200F400CC30F5004C30F6007B30F700C821E4
:1008320070088316A0007108A1007208A200730854
:10084200A300A40AEE2B8316FF302005F800FF3028
:100852002105F9007F302205FA0000302305FB0054
:100862007808F4007908F5007A08F6007B08F700AA
:10087200F40DF50DF60DF70D741000302005F000A3
:1008820000302105F10000302205F200FF3023057F
:10089200F3007008A0007108A1007208A20073089A
:1008A200A30074082004F00075082104F100760802
:1008B2002204F20077082304F3007008A0007108F4
:1008C200A1007208A2007308A3007F302302F00087
:1008D20070088312EE0001308316A3007008F40042
:1008E2002008F0002108F1002208F2002308F3009A
:1008F20074080319832CF00DF10DF20DF30D701035
:10090200FF3E7A2C7008A0007108A1007208A200B4
:100912007308A3002308303EF00083126C088400A1
:1009220070088000EC0A803083162406F0008030C4
:10093200013A7002031CA62C8030063AF000803087
:1009420024067002031CA62CAE2C83126C088400B1
:100952002E308000EC0A0130EF0083120630EE00E8
:100962006E08003A0319122D8316A3012008F00025
:100972002108F1002208F2002308F300F00DF10D26
:10098200F20DF30D7010F00DF10DF20DF30D70106C
:100992002008F00721080318210FF1072208031885
:1009A200220FF20723080318230FF3077008A00091
:1009B2007108A1007208A2007308A3002008F000C9
:1009C2002108F1002208F2002308F300F00DF10DD6
:1009D200F20DF30D70107008A0007108A1007208EA
:1009E200A2007308A3002308303EF00083126C08B3
:1009F200840070088000EC0A6F08003A031D0F2D76
:100A02008316A4032408003A031D0F2D83126C08D9
:100A120084002E308000EC0A0130EF008312EE03D6
:100A2200B12CFF306C0784000008303A031D1B2DE7
:100A3200EC03122DFF306C07840000082E3A031DD0
:100A4200232DEC0383162408003A0319692D83121F
:100A52006C08840065308000EC0A8030831624061E
:100A6200F0008030003A70020318412D83126C08A6
:100A720084002D308000EC0A83162408003CA40078
:100A820024088312EE008030093AF0008030831689
:100A92002406700203185A2D0A30F40083126E08DD
:100AA200F000F4203030F0076C08840070088000F9
:100AB200EC0A83120A30F4006E08F000F420780881
:100AC200F0003030F0076C08840070088000EC0AF7
:0C0AD20083126C0884008001F001080011
:100ADE00831203137008F8007108F000F101F2019F
:100AEE00F301FB01FC019630F300FA01F01F852D96
:100AFE00F809F009F80A0319F00AFA177008F1005C
:0C0B0E007808F000F801F201C520080092
:100B1A006B228A110A128000840AC10A0319C20AC6
:080B2A00F003031D8D2D0800EE
:100B32008316031398169030831298008316871732
:100B4200071383128C1EA82D1A08F000A22D08008C
:100B520004308316031788008901831287138813D0
:100B6200FF30831603138500870186014E21AF20D3
:100B72000C308316AA002B2001308316AA002B20EA
:020B8200080069
:100B840083120313ED01EE0168088316A00083129B
:100B940069088316A100803083126906F000803052
:100BA4007002031DD72D003068020318E82D0130B0
:100BB400ED000030EE006808003C8316A0008312AC
:100BC4006908031C013E8316A101A10283162008B3
:100BD400A5002108A60083126A088316A70029220B
:100BE40006308312EB000030EC006C08003C031D5F
:100BF400FD2D6B08003C0318182E6B086A07F200E1
:100C040001306B02F0000030031C013E6C02F10065
:100C140070086A0784000008F000720884007008F5
:100C240080000130EB02031CEC03F72D6A088400FA
:100C3400203080006D086E040319362EEB01EC01A0
:100C44006B086A0784000008203A031D2D2EEB0A66
:100C54000319EC0A222E0130EB02031CEC036B088F
:0A0C64006A0784002D3080000800AC
:100C6E00203083120313D8002030D9002030DA0050
:100C7E002030DB002030DC002030DD002030DE00B4
:100C8E002030DF002030E0002030E1002030E20094
:100C9E002030E3002030E4002030E5002030CA0090
:100CAE002030CB002030CC002030CD002030CE00C4
:100CBE002030CF002030D0002030D1002030D200A4
:100CCE002030D3002030D4002030D5002030D60084
:0E0CDE002030D70001308316AA002B2008001A
:100CEC000627A925193083169900181599258230E5
:100CFC00FC00DD30FD00FD0B812EFC0B812E000075
:100D0C0000000130E6000030E70037260230E80032
:100D1C001B2370088312E6007108E7006F2570082A
:100D2C00C6007108C7007208C8007308C9000030FB
:100D3C00F4000030F5004830F6007A30F700C82196
:100D4C007008B1007108B2007208B3007308B400E7
:100D5C007008E8007108E9007208EA007308EB00FB
:100D6C005830EC004123831203136608E80067082F
:100D7C00E9004A30EA00C2254A30E8000423013079
:100D8C00E8000130E9002130EA00C2220230E8001C
:100D9C000330E9005830EA00C2220530FB000F3066
:100DAC00FC00F130FD00FD0BD92EFC0BD92EFB0BFA
:060DBC00D92E8B2EE02E63
:100E0C00213084001F3083120313F000E630C10040
:080E1C000630C2008D2508001C
:100DCC00543465346D347034653472346134743435
:100DDC007534723461343A342034B03443340034D2
:080DEC0000340034003400342F
:020DF400303499
:080DF6004E3461344E34003428
:080DFE0049344E344634003440
:040E06003034003450
:04400E00F42F000784
:00000001FF
